{
  "transactions": [
    {
      "hash": "0x34f0cb83d1b73fc8f2637e8afa82393d6ad0db9e50a0b3c2528732bfc8b0b8ac",
      "transactionType": "CALL",
      "contractName": null,
      "contractAddress": "0xc90cfc2c07884803453d821d7a8760f8c203f010",
      "function": "mintNft(string)",
      "arguments": [
        "ipfs://bafybeig37ioir76s7mg5oobetncojcm3c3hxasyd4rvid4jqhy4gkaheg4/?filename=0-PUG.json"
      ],
      "transaction": {
        "from": "0x1925d9e43164d5afe96314ee706948b5cbb3e637",
        "to": "0xc90cfc2c07884803453d821d7a8760f8c203f010",
        "gas": "0x40fd9",
        "value": "0x0",
        "input": "0xda86f4a900000000000000000000000000000000000000000000000000000000000000200000000000000000000000000000000000000000000000000000000000000057697066733a2f2f62616679626569673337696f6972373673376d67356f6f6265746e636f6a636d3363336878617379643472766964346a71687934676b61686567342f3f66696c656e616d653d302d5055472e6a736f6e000000000000000000",
        "nonce": "0x5",
        "chainId": "0xaa36a7"
      },
      "additionalContracts": [],
      "isFixedGasLimit": false
    }
  ],
  "receipts": [
    {
      "status": "0x1",
      "cumulativeGasUsed": "0x76d1a3",
      "logs": [
        {
          "address": "0xc90cfc2c07884803453d821d7a8760f8c203f010",
          "topics": [
            "0xddf252ad1be2c89b69c2b068fc378daa952ba7f163c4a11628f55a4df523b3ef",
            "0x0000000000000000000000000000000000000000000000000000000000000000",
            "0x0000000000000000000000001925d9e43164d5afe96314ee706948b5cbb3e637",
            "0x0000000000000000000000000000000000000000000000000000000000000000"
          ],
          "data": "0x",
          "blockHash": "0x3c323d351c2c427a8e6c524f7febfb49111a53e233cfd9584f683b037d5cda24",
          "blockNumber": "0x6958c9",
          "transactionHash": "0x34f0cb83d1b73fc8f2637e8afa82393d6ad0db9e50a0b3c2528732bfc8b0b8ac",
          "transactionIndex": "0x2b",
          "logIndex": "0x6f",
          "removed": false
        }
      ],
      "logsBloom": "0x00000000000000000000000000000000000000000000000000000000000000000000000000000000000000000000000000000000000000000000000000000000000000000020000000000008000000000000000000000000000000000000000000000000020000080000000000000800000000000000000000000010000000000000000000000000000000000000000000000000000000000000000000000000000000000000000000000000000000000000000000000000002000000080000000200002000000000000000000000000000000000000000000000000000020080000000000000000000000000000000000000000000000000000000000000000",
      "type": "0x2",
      "transactionHash": "0x34f0cb83d1b73fc8f2637e8afa82393d6ad0db9e50a0b3c2528732bfc8b0b8ac",
      "transactionIndex": "0x2b",
      "blockHash": "0x3c323d351c2c427a8e6c524f7febfb49111a53e233cfd9584f683b037d5cda24",
      "blockNumber": "0x6958c9",
      "gasUsed": "0x2c702",
      "effectiveGasPrice": "0x1ec1e7a00",
      "from": "0x1925d9e43164d5afe96314ee706948b5cbb3e637",
      "to": "0xc90cfc2c07884803453d821d7a8760f8c203f010",
      "contractAddress": null
    }
  ],
  "libraries": [],
  "pending": [],
  "returns": {},
  "timestamp": 1729338099,
  "chain": 11155111,
  "commit": null
}